:1000000019C028C027C026C025C024C023C022C0D4
:1000100021C020C01FC01EC01DC01CC01BC01AC0F4
:1000200019C018C017C016C015C014C013C012C024
:1000300011C010C011241FBECFEFCDBFDFE3DEBF64
:100040002FE3A0E8BFE301C01D92A338B207E1F798
:100050001BD019C1D5CF63E080E690E00ED160E0FF
:1000600081E690E00AD18091630080FDFCCF089585
:10007000E0E0F4E080E4818388E0868B96E8928378
:10008000818B828B878B0895E6DFF2DFA5D05CD071
:100090002FE78AE196E0215080409040E1F700C0D0
:1000A0000000F5CFEF92FF920F931F93CF93DF9352
:1000B00000D0CDB7DEB78C018091080481FD02C06D
:1000C00081E301C080E389831A828CE390D0F80138
:1000D00001900020E9F731970F2EFCE7EF2EF12C6D
:1000E000F02DE082F182BE016F5F7F4FC801BAD070
:1000F000F80101900020E9F73197E082F1828091C8
:10010000080482FD02C081E301C080E38983BE014F
:100110006F5F7F4FC801A6D0F80101900020E9F77A
:1001200031978EE39DE0808391838AE090E0828323
:100130009383C80163D00F900F90DF91CF911F91EF
:100140000F91FF90EF9008950F931F93CF93DF933C
:10015000CDB7DEB7A097CDBFDEBFFE01319680E2FE
:10016000DF011D928A95E9F710E000E064D09091DC
:10017000823F91111CC0113071F48E3321F4CE01F5
:10018000019690DF21C0E1E0F0E0EC0FFD1FE00FF1
:10019000F11D80830F5F8C3309F411E08091803F63
:1001A000813021F7E0E8FFE311821082DFCFE0E841
:1001B000FFE3128281818A3020F48F5F8093813F38
:1001C00003C081E08093803FA096CDBFDEBFDF916A
:1001D000CF911F910F910895E0E0F8E080E491E065
:1001E0008087918782EC868383E08783089590914E
:1001F000040895FFFCCF8093020808950F931F9386
:10020000CF93DF938C01C0E0D0E006C0F801EC0F83
:10021000FD1F8081ECDF2196F80101900020E9F7B5
:100220003197E01BF10BCE17DF0780F3DF91CF9101
:100230001F910F91089580E88093040880E291EA6D
:10024000A7E0B0E008C00197A109B10921F483E05B
:100250008093823F04C0209104082223A4F7809158
:1002600000080895FB01DC010D900020E9F71197CB
:1002700001900D920020E1F70895DC0128ED209314
:0A02800034006C930895F894FFCF4A
:00000001FF
