:1000000019C028C027C026C025C024C023C022C0D4
:1000100021C020C01FC01EC01DC01CC01BC01AC0F4
:1000200019C018C017C016C015C014C013C012C024
:1000300011C010C011241FBECFEFCDBFDFE3DEBF64
:100040002FE3A0E8BFE301C01D92A338B207E1F798
:100050009BD0ECC1D5CF63E080E690E0E1D160E0D9
:1000600081E690E0DDD18091630080FDFCCF0895B2
:100070002F923F924F925F926F927F928F929F92B8
:10008000AF92BF92CF92DF92EF92FF920F931F93A6
:10009000CF93DF93322E432E542E652E762ED72FFC
:1000A000C82F292E88E090E0AFEF18C08F01000F15
:1000B000111F000F111F000F111F232D342D452D6F
:1000C000562D672D7D2F8C2F922D64D18A2E82265E
:1000D000912CD401A05DBB47AC91CF01FC013197BD
:1000E000892B21F78A2FDF91CF911F910F91FF90DC
:1000F000EF90DF90CF90BF90AF909F908F907F90C8
:100100006F905F904F903F902F900895BF92CF9245
:10011000DF92EF92FF920F931F93CF93DF93B22E54
:1001200008E038D1C22ED32EE42EF52E062F172F3D
:10013000D82FC92F9DDFB81649F020E030E040E00D
:1001400050E060E070E080E090E008C02C2D3D2D94
:100150004E2D5F2D602F712F8D2F9C2FDF91CF9112
:100160001F910F91FF90EF90DF90CF90BF90089577
:10017000E0E0F4E080E4818388E0868B96E8928377
:10018000818B828B878B089566DFF2DFA2D059D0F6
:100190002FE78AE196E0215080409040E1F700C0CF
:1001A0000000F5CF0F93DC0120E030E040E050E0AC
:1001B00060E070E080E090E015C0F0EDFE0FFA30F6
:1001C00068F0FFEBFE0FF63018F4F9ECFE0F06C0F6
:1001D000FFE9FE0FF63048F4F9EAFE0F04E0BFD065
:1001E0002F2B1196EC91E111E8CF0F910895CF9349
:1001F000DF9300D000D0CDB7DEB7D4DF87DF8091AA
:10020000080481FD8091080420E039E64FE15AEFAF
:1002100069EC78E782E392E02BDF40E1BE016F5F9B
:100220007F4F90E0D3D08CE35FD0CE01019663D0B6
:1002300080E395E860D02496CDBFDEBFDF91CF91FB
:1002400008950F931F93CF93DF93CDB7DEB76997D0
:10025000CDBFDEBFFE01319689E1DF011D928A9597
:10026000E9F710E000E064D09091823F91111CC04A
:10027000113071F48E3321F4CE010196B8DF21C024
:10028000E1E0F0E0EC0FFD1FE00FF11D80830F5F58
:100290008C3309F411E08091803F813021F7E0E850
:1002A000FFE311821082DFCFE0E8FFE31282818159
:1002B0008A3020F48F5F8093813F03C081E0809378
:1002C000803F6996CDBFDEBFDF91CF911F910F9127
:1002D0000895E0E0F8E080E491E08087918782EC87
:1002E000868383E0878308959091040895FFFCCF6F
:1002F0008093020808950F931F93CF93DF938C018F
:10030000C0E0D0E006C0F801EC0FFD1F8081ECDFFB
:100310002196F80101900020E9F73197E01BF10BDD
:10032000CE17DF0780F3DF91CF911F910F910895D2
:1003300080E88093040880E291EAA7E0B0E008C07A
:100340000197A109B10921F483E08093823F04C0A1
:10035000209104082223A4F78091000808950F93A8
:10036000083090F0982F872F762F652F542F432F2A
:10037000322F22270850F4CF220F331F441F551F5E
:10038000661F771F881F991F0A95B2F70F9108956E
:1003900097FB10F8169400080F93083098F0085057
:1003A000232F342F452F562F672F782F892F902DED
:1003B000F4CF0594979587957795679557954795C9
:1003C000379527950A95AAF70F910895BB27FB014A
:1003D0005527AA27880F991FAA1FA41710F0A41B3E
:1003E00083955051B9F7A05DAA3308F0A95DA19398
:1003F000009779F7B111B1931192CB010C940002DF
:10040000DC01FC01672F71917723E1F7329704C07B
:100410007C916D9370836291AE17BF07C8F3089506
:10042000DC0128ED209334006C930895F894FFCFFD
:10043000009BAD36C15A6CF71982B42FD84375EEC4
:1004400032A99F04F3685EC52BB0861DEA7147DCB4
:1004500064FFC952A53E08937DE6D04BBC27118AA4
:1004600056CDFB60970C3AA14FD4E2798E1523B894
:10047000C85365FE0992A43FD14A7CE7108BBD2684
:10048000FA6157CC3BA0960DE3784ED522B98F1474
:10049000AC37019A6DF6C05BB52E188374EFD94264
:1004A0009E0533A85FC4F269871C2AB146DDEB7054
:1004B0000B90A63DCA5167FC1289BF24D3487EE544
:1004C00039A2940FF86355CE20BB8D16E17A4CD734
:1004D0006FF4C259AE35039876EDDB40B72C1A8124
:1004E0005DC6F06B9C0731AA44DFE972851E28B314
:1004F000C3586EF50299AF34DA4177EC1B80B62D04
:10050000F16A5CC730AB9D06E87345DE29B2841FF3
:10051000A73C0A9166FDCB50BE2513887FE4D249E3
:10052000950E38A354CFF9628C1721BA4DD6E07BD3
:040530003E0D0A0072
:00000001FF
