:1000000019C028C027C026C025C024C023C022C0D4
:1000100021C020C01FC01EC01DC01CC01BC01AC0F4
:1000200019C018C017C016C015C014C013C012C024
:1000300011C010C011241FBECFEFCDBFDFE3DEBF64
:100040002FE3A0E8BFE301C01D92A338B207E1F798
:10005000CFD00FC3D5CF63E080E690E004D360E05B
:1000600081E690E000D38091630080FDFCCF08958D
:100070002F923F924F925F926F927F928F929F92B8
:10008000AF92BF92CF92DF92EF92FF920F931F93A6
:10009000CF93DF93CDB7DEB72B97CDBFDEBFC22E98
:1000A000B32EA42E952E862E772E682E592EF22E44
:1000B000032F142F5A876983B72FD82EE92EE0E03B
:1000C000F0E013C031962F2D302F412F5A856981D2
:1000D0007B2F8D2D9E2D08E086D2F22E032F142F1C
:1000E0005A876983B72FD82EE92E2F2D302F412F15
:1000F0005A8569817B2F8D2D9E2DA0E099D211F715
:100100008FEF8A87CB86B9824A2C392C282C19C0CC
:100110008D01000F111F000F111F000F111F2B85E4
:100120003981442D532D622D772D862D952D5BD24F
:100130008A848226912CF401EA58F94780818A87C3
:10014000FD01DF011197EF2B19F78A852B96CDBFA3
:10015000DEBFDF91CF911F910F91FF90EF90DF9065
:10016000CF90BF90AF909F908F907F906F905F9057
:100170004F903F902F900895BF92CF92DF92EF92D1
:10018000FF920F931F93CF93DF93B22EC32ED42EE3
:10019000E52EF62E172FD82FC92F6ADF801749F0CA
:1001A00020E030E040E050E060E070E080E090E08F
:1001B00008C02B2D3C2D4D2D5E2D6F2D712F8D2FB9
:1001C0009C2FDF91CF911F910F91FF90EF90DF90C7
:1001D000CF90BF90089510920102E0E0F4E080E437
:1001E000818386E8828388E0818B828B878B089568
:1001F00032DFF1DF97D1DED0FECFAC0180E090E0BE
:1002000001C001968131910530F4FA01E80FF91F20
:1002100020812033B1F308958F929F92AF92BF92C5
:10022000CF92DF92EF92FF920F931F93CF93DF93C2
:10023000CDB7DEB7A897CDBFDEBFBC01FE013196BA
:1002400086E1DF011D928A95E9F78CE3898390E3CB
:100250009A839B839C839D839E839F8398879987A2
:100260009A879B879C879D879E879F87988B998B72
:100270009A8B8EE38B8B8DE08C8B8AE08D8B8091BB
:10028000080481FD02C028E001C020E0809108043C
:1002900082FD02C094E001C090E0A22EA92AFE01D6
:1002A000779690E1DF011D929A95E9F7DB011F96A1
:1002B0009C911F979FA350969C9198A74FE050E068
:1002C000CF01C2D18091803F811141C0CE0187967C
:1002D000C4D0022FCE014796C0D04EDFB12CC12C26
:1002E000D12CE12CF12C00E010E099D1822E932E3C
:1002F000B42EC52ED62EE72EF82EA92ECE01479667
:100300007CDF019601E010E00C0F1D1F080F191F84
:10031000282D392D4B2D5C2D6D2D7E2D8F2D9A2D59
:10032000C1D0282D392D4B2D5C2D6D2D7E2D8F2D7F
:100330009A2D9EDE8E010F5E1F4F282F30E040E089
:1003400050E060E070E080E090E0ACD020C08E0132
:10035000005F1F4F2A2D30E040E050E060E070E089
:1003600080E090E09FD02A2D30E040E050E060E057
:1003700070E080E090E07CDE0F5F1F4F282F30E0C0
:1003800040E050E060E070E080E090E08BD0CE0193
:100390000196DAD0A896CDBFDEBFDF91CF911F9135
:1003A0000F91FF90EF90DF90CF90BF90AF909F9014
:1003B0008F9008950F931F93CF93DF93CDB7DEB740
:1003C0006197CDBFDEBFFE01319681E1DF011D9255
:1003D0008A95E9F700E010E0D4D09091803F99230E
:1003E00041F086E797E818DFE0E8FFE3108211822A
:1003F0002CC0002381F08E3321F4CE0101960CDF56
:1004000024C0113140F4E1E0F0E0EC0FFD1FE10FFA
:10041000F11D80831F5F8C3331F4E0E8FFE310822D
:10042000118201E010E08091823F8823A9F2E0E888
:10043000FFE3128281818A3020F48F5F8093813FB5
:10044000CBCF81E08093803FC7CF6196CDBFDEBF29
:10045000DF91CF911F910F9108950F93DC0120E060
:1004600030E040E050E060E070E080E090E015C0F7
:10047000F0EDFE0FFA3068F0FFEBFE0FF63018F4E7
:10048000F9ECFE0F06C0FFE9FE0FF63048F4F9EA7A
:10049000FE0F04E08DD02F2B1196EC91E111E8CFE7
:1004A0000F910895AF92BF92CF92DF92EF92FF9299
:1004B0000F931F93CF93DF93A22EB32EC42ED52E6E
:1004C000E62EF72ED82FC92FD801ECE3F0E019C0A3
:1004D0002A2D3B2D4C2D5D2D6E2D7F2D8D2F9C2F8C
:1004E0000E2F81D02F7011F4FF2351F0CD01019612
:1004F0002A3010F4205D01C0295A2C93DC01F1E070
:10050000E450EE232CF7F11102C080E38C93DF91CD
:10051000CF911F910F91FF90EF90DF90CF90BF9000
:10052000AF900895E0E0F8E08BE591E08087918757
:1005300082EC868383E0878308959091040895FF79
:10054000FCCF8093020808950F931F93CF93DF93FE
:100550008C01C0E0D0E006C0F801EC0FFD1F8081E7
:10056000ECDF2196F80101900020E9F73197E01BBC
:10057000F10BCE17DF0780F3DF91CF911F910F9121
:10058000089580E88093040880E49CE9A0E0B0E04E
:1005900008C00197A109B10921F481E08093823F4D
:1005A00004C0209104082223A4F780910008089534
:1005B0000F93083090F0982F872F762F652F542FA8
:1005C000432F322F22270850F4CF220F331F441F0E
:1005D000551F661F771F881F991F0A95B2F70F9145
:1005E000089597FB10F8169400080F93083098F0C0
:1005F0000850232F342F452F562F672F782F892F00
:10060000902DF4CF05949795879577956795579595
:100610004795379527950A95AAF70F9108952A0DC2
:100620003B1D4C1D5D1D6E1D7F1D801F911F08957C
:100630000024A7FD00942A173005400550056005E9
:100640007005800590050895FB01DC014150504084
:1006500048F001900D920020C9F701C01D92415051
:100660005040E0F70895DC0128ED209334006C93AE
:060670000895F894FFCF8D
:10067600009BAD36C15A6CF71982B42FD84375EE7C
:1006860032A99F04F3685EC52BB0861DEA7147DC6C
:1006960064FFC952A53E08937DE6D04BBC27118A5C
:1006A60056CDFB60970C3AA14FD4E2798E1523B84C
:1006B600C85365FE0992A43FD14A7CE7108BBD263C
:1006C600FA6157CC3BA0960DE3784ED522B98F142C
:1006D600AC37019A6DF6C05BB52E188374EFD9421C
:1006E6009E0533A85FC4F269871C2AB146DDEB700C
:1006F6000B90A63DCA5167FC1289BF24D3487EE5FC
:1007060039A2940FF86355CE20BB8D16E17A4CD7EB
:100716006FF4C259AE35039876EDDB40B72C1A81DB
:100726005DC6F06B9C0731AA44DFE972851E28B3CB
:10073600C3586EF50299AF34DA4177EC1B80B62DBB
:10074600F16A5CC730AB9D06E87345DE29B2841FAB
:10075600A73C0A9166FDCB50BE2513887FE4D2499B
:10076600950E38A354CFF9628C1721BA4DD6E07B8B
:02077600300051
:00000001FF
