:1000000019C028C027C026C025C024C023C022C0D4
:1000100021C020C01FC01EC01DC01CC01BC01AC0F4
:1000200019C018C017C016C015C014C013C012C024
:1000300011C010C011241FBECFEFCDBFDFE3DEBF64
:100040002FE3A0E8BFE301C01D92A338B207E1F798
:10005000D1D0DDC2D5CF63E080E690E0D2D260E0BF
:1000600081E690E0CED28091630080FDFCCF0895C0
:100070002F923F924F925F926F927F928F929F92B8
:10008000AF92BF92CF92DF92EF92FF920F931F93A6
:10009000CF93DF93CDB7DEB72B97CDBFDEBFC22E98
:1000A000B32EA42E952E862E772E682E592EF22E44
:1000B000032F142F5A876983B72FD82EE92EE0E03B
:1000C000F0E013C031962F2D302F412F5A856981D2
:1000D0007B2F8D2D9E2D08E06CD2F22E032F142F36
:1000E0005A876983B72FD82EE92E2F2D302F412F15
:1000F0005A8569817B2F8D2D9E2DA0E076D211F738
:100100008FEF8A87CB86B9824A2C392C282C19C0CC
:100110008D01000F111F000F111F000F111F2B85E4
:100120003981442D532D622D772D862D952D41D269
:100130008A848226912CF401EE5EF94780818A87B9
:10014000FD01DF011197EF2B19F78A852B96CDBFA3
:10015000DEBFDF91CF911F910F91FF90EF90DF9065
:10016000CF90BF90AF909F908F907F906F905F9057
:100170004F903F902F900895BF92CF92DF92EF92D1
:10018000FF920F931F93CF93DF93B22E08E011D20B
:10019000C22ED32EE42EF52E062F172FD82FC92FBF
:1001A00067DFB81649F020E030E040E050E060E062
:1001B00070E080E090E008C02C2D3D2D4E2D5F2D8D
:1001C000602F712F8D2F9C2FDF91CF911F910F9159
:1001D000FF90EF90DF90CF90BF900895E0E0F4E0C3
:1001E00080E4818388E0868B96E89283818B828B82
:1001F000878B089530DFF2DF7BD1C2D0FECFAC0118
:1002000080E090E001C001968031910530F4FA0160
:10021000E80FF91F20812033B1F308956F927F9288
:100220008F929F92AF92BF92CF92DF92EF92FF9206
:100230000F931F93CF93DF93CDB7DEB76697CDBFF4
:10024000DEBF6C01FE01319686E1DF011D928A95C9
:10025000E9F78CE3898380E38A838B838C838D83A6
:100260008E838F83888789878A878B878C878D8702
:100270008E878F87888B898B8A8B8EE38B8B8DE023
:100280008C8B8AE08D8BE0E0F4E02085269581E080
:1002900028272170808582FD02C082E001C080E0B5
:1002A000F82EF22A8091803F811135C0C601BBD063
:1002B00063DF04E063D1632E742E852E962EA72E65
:1002C000B82EE92EF22AC6019ADF019601E010E06D
:1002D0000C0F1D1F080F191F2F2D362D472D582DC0
:1002E000692D7A2D8B2D9E2DC3D02F2D362D472D88
:1002F000582D692D7A2D8B2D9E2DBADE8E010F5E25
:100300001F4F282F30E040E050E060E070E080E0D8
:1003100090E0AED020C08E01005F1F4F2F2D30E047
:1003200040E050E060E070E080E090E0A1D02F2D50
:1003300030E040E050E060E070E080E090E098DE87
:100340000F5F1F4F282F30E040E050E060E070E08A
:1003500080E090E08DD0CE010196DCD06696CDBFD6
:10036000DEBFDF91CF911F910F91FF90EF90DF9053
:10037000CF90BF90AF909F908F907F906F90089597
:100380000F931F93CF93DF93CDB7DEB76097CDBFA9
:10039000DEBFFE01319680E1DF011D928A95E9F70B
:1003A00000E010E0D4D09091803F992341F082E1A9
:1003B00097E834DFE0E8FFE3108211822CC00023CD
:1003C00081F08E3321F4CE01019628DF24C0103154
:1003D00040F4E1E0F0E0EC0FFD1FE10FF11D808340
:1003E0001F5F8C3331F4E0E8FFE31082118201E0FB
:1003F00010E08091823F8823A9F2E0E8FFE31282B7
:1004000081818A3020F48F5F8093813FCBCF81E060
:100410008093803FC7CF6096CDBFDEBFDF91CF9185
:100420001F910F9108950F93DC0120E030E040E030
:1004300050E060E070E080E090E015C0F0EDFE0F6D
:10044000FA3068F0FFEBFE0FF63018F4F9ECFE0F0F
:1004500006C0FFE9FE0FF63048F4F9EAFE0F04E0AB
:100460008DD02F2B1196EC91E111E8CF0F910895CB
:10047000AF92BF92CF92DF92EF92FF920F931F93B2
:10048000CF93DF93A22EB32EC42ED52EE62EF72EB9
:10049000D82FC92FD801ECE3F0E019C02A2D3B2D4D
:1004A0004C2D5D2D6E2D7F2D8D2F9C2F0E2F81D0ED
:1004B0002F7011F4FF2351F0CD0101962A3010F472
:1004C000205D01C0295A2C93DC01F1E0E450EE23B9
:1004D0002CF7F11102C080E38C93DF91CF911F9133
:1004E0000F91FF90EF90DF90CF90BF90AF90089565
:1004F000E0E0F8E080E491E08087918782EC8683F9
:1005000083E0878308959091040895FFFCCF809342
:10051000020808950F931F93CF93DF938C01C0E0DF
:10052000D0E006C0F801EC0FFD1F8081ECDF2196C2
:10053000F80101900020E9F73197E01BF10BCE178D
:10054000DF0780F3DF91CF911F910F91089580E82D
:100550008093040880E49CE9A0E0B0E008C0019723
:10056000A109B10921F481E08093823F04C0209168
:1005700004082223A4F78091000808950F930830FF
:1005800090F0982F872F762F652F542F432F322FDF
:1005900022270850F4CF220F331F441F551F661F18
:1005A000771F881F991F0A95B2F70F91089597FB3F
:1005B00010F8169400080F93083098F00850232F75
:1005C000342F452F562F672F782F892F902DF4CF5A
:1005D000059497958795779567955795479537959E
:1005E00027950A95AAF70F9108950024A7FD009476
:1005F0002A173005400550056005700580059005F7
:100600000895DC0128ED209334006C930895F8944C
:02061000FFCF1A
:10061200009BAD36C15A6CF71982B42FD84375EEE0
:1006220032A99F04F3685EC52BB0861DEA7147DCD0
:1006320064FFC952A53E08937DE6D04BBC27118AC0
:1006420056CDFB60970C3AA14FD4E2798E1523B8B0
:10065200C85365FE0992A43FD14A7CE7108BBD26A0
:10066200FA6157CC3BA0960DE3784ED522B98F1490
:10067200AC37019A6DF6C05BB52E188374EFD94280
:100682009E0533A85FC4F269871C2AB146DDEB7070
:100692000B90A63DCA5167FC1289BF24D3487EE560
:1006A20039A2940FF86355CE20BB8D16E17A4CD750
:1006B2006FF4C259AE35039876EDDB40B72C1A8140
:1006C2005DC6F06B9C0731AA44DFE972851E28B330
:1006D200C3586EF50299AF34DA4177EC1B80B62D20
:1006E200F16A5CC730AB9D06E87345DE29B2841F10
:1006F200A73C0A9166FDCB50BE2513887FE4D24900
:10070200950E38A354CFF9628C1721BA4DD6E07BEF
:020712003000B5
:00000001FF
